:020000040800F2
:1000000000200020C1000008C7000008C700000849
:1000100000000000000000000000000000000000E0
:10002000000000000000000000000000C700000801
:100030000000000000000000C7000008C700000822
:10004000C7000008C7000008C7000008C700000874
:10005000C7000008C7000008C7000008C700000864
:10006000C7000008C7000008C7000008C700000854
:10007000C70000083D020008C7000008C7000008CC
:10008000C7000008C7000008C7000008C700000834
:10009000C7000008C7000008C7000008C700000824
:1000A000C7000008C7000008C7000008C700000814
:1000B000C7000008C7000008C7000008C700000804
:1000C00000F0ACF9FEE7FEE780B582B000AF7860E3
:1000D000C0467B685A1E7A60002BFAD1C046BD46E6
:1000E00002B080BD80B500AF044B044A1268012104
:1000F0008A431A60C046BD4680BDC0460C2C0140F4
:1001000080B500AF044B044A126801210A431A600B
:10011000C046BD4680BDC0460C2C014080B500AF36
:100120000C4B0C4A126801218A431A600A4B0A4A96
:1001300012680A490A401A60094B1800FFF7C4FF09
:10014000044B044A126801210A431A60C046BD46A6
:1001500080BDC0460C2C014014000048FFFEFFFF8C
:100160008096980080B500AF0C4B0C4A12680121B4
:100170008A431A600A4B0A4A12680A490A401A60FE
:10018000094B1800FFF7A0FF044B044A1268012135
:100190000A431A60C046BD4680BDC0460C2C0140D3
:1001A00014000048FFFEFFFF9B5B060080B500AF18
:1001B0000C4B0C4A126801218A431A600A4B0A4A06
:1001C00012680A490A401A60094B1800FFF77CFFC1
:1001D000044B044A126801210A431A60C046BD4616
:1001E00080BDC0460C2C014014000048FFFEFFFFFC
:1001F00000093D0080B500AF0C4B0C4A126801218C
:100200008A431A600A4B0A4A12680A490A401A606D
:10021000094B1800FFF758FF044B044A12680121EC
:100220000A431A60C046BD4680BDC0460C2C014042
:1002300014000048FFFEFFFF40420F0080B500AFF2
:10024000334B334A126801218A431A60314B1B68D1
:100250005A1C304B1A602F4B1B68092B04DD2D4BA9
:1002600000221A6000F0CCF82B4B1B6801221340CF
:100270000AD02A4B1800FFF727FF274B1B680122E3
:10028000134001D0FFF72EFF234B1B6804221340BD
:100290000AD0224B1800FFF717FF1F4B1B680422E0
:1002A000134001D0FFF72CFF1B4B1B6808221340A3
:1002B0000AD01A4B1800FFF707FF174B1B680822DC
:1002C000134001D0FFF72AFF134B1B688022134015
:1002D0000AD0124B1800FFF7F7FE0F4B1B68802265
:1002E000134001D0FFF762FF0B4B1B684022134005
:1002F0000AD00A4B1800FFF7E7FE074B1B684022A5
:10030000134001D0FFF776FFC046BD4680BDC04612
:10031000102C0140000000201000004850C30000D5
:1003200080B500AF304B304A1268802189020A4301
:100330001A609023DB059022D205126801210A433E
:100340001A609023DB059022D205126880214902B1
:100350000A431A609023DB059022D205126810210F
:100360000A431A609023DB059022D20512684021CF
:100370000A431A609023DB059022D205126880217F
:10038000C9000A431A609023DB059022D205126847
:100390008021C9010A431A60144B144A1268802153
:1003A00009010A431A60124B20221A60114B114AAC
:1003B0001268802189010A431A600F4B0E4A1268A5
:1003C00010210A431A600C4B0B4A126801210A43A0
:1003D0001A600A4B094A126801210A431A6062B680
:1003E000C046BD4680BDC0461410024018100240F1
:1003F0002C2C014000E100E0002C01400C2C0140BD
:1004000080B500AF044B044A1268802149004A407D
:100410001A60C046BD4680BD1400004880B500AFDC
:10042000FFF77EFF084B1B6820221340FAD0074BD2
:100430001800FFF749FEC046034B1B6820221340FB
:10044000FAD1FFF78FFEEDE71000004850C300001F
:0400000508000000EF
:00000001FF
